:020000040000FA
:100000000C9462000C948A000C948A000C948A0070
:100010000C948A000C948A000C948A000C948A0038
:100020000C948A000C948A000C948A000C94290485
:100030000C948A000C948A000C948A000C948A0018
:100040000C9487030C948A000C94F7030C94D1034E
:100050000C948A000C948A000C948A000C948A00F8
:100060000C948A000C948A000000000024002700F1
:100070002A0000000000250028002B0000000000DE
:1000800023002600290004040404040404040202DA
:100090000202020203030303030301020408102007
:1000A0004080010204081020010204081020000012
:1000B0000008000201000003040700000000000027
:1000C00000002A0511241FBECFEFD8E0DEBFCDBF50
:1000D00011E0A0E0B1E0E0E5F3E102C005900D928F
:1000E000A032B107D9F721E0A0E2B1E001C01D9232
:1000F000A33FB207E1F710E0C2E6D0E004C02197C9
:10010000FE010E94A009C136D107C9F70E948705E8
:100110000C94A6090C940000CF92DF92EF92FF920C
:10012000DC01A03282E0B807D4F5A53BB10514F09C
:10013000A4EBB0E04091F10128E830E0241B310944
:1001400047FD3395220F331F220F331F6901330FF1
:10015000EE08FF084091F20128E532E0241B310946
:1001600047FD3395220F331F220F331F032E000C40
:10017000440B550B2C193D094E095F09B7FF02C00E
:10018000B0E0A0E00E942A0824EB30E040E050E01C
:100190000E940008C20ED31EE41EF51ED601E09197
:1001A000F001EC3080F52091F10188E890E0821BAD
:1001B000910927FD9395880F991F880F991FA817FC
:1001C000B90784F02091F20188E592E0821B910941
:1001D00027FD9395880F991F880F991FA817B907B6
:1001E0000CF4CD010297880F991F4FB7F8942E2F6A
:1001F00030E0F901EE0FFF1FE20FF31FE553FE4F52
:10020000928381834FBFFF90EF90DF90CF9008954E
:10021000833081F028F4813099F08230A9F008957C
:100220008730A9F08830C9F08430B1F48091800023
:100230008F7D03C0809180008F7780938000089528
:1002400084B58F7784BD089584B58F7DFBCF809171
:10025000B0008F778093B00008958091B0008F7DBB
:10026000F9CFCF93DF93282F30E0F901E255FF4F0C
:100270008491F901E656FF4FD491F901EA57FF4FF7
:10028000C491CC23A1F081110E940801EC2FF0E071
:10029000EE0FFF1FE458FF4FA591B491EC91ED23B1
:1002A00081E090E009F480E0DF91CF91089580E053
:1002B00090E0FACF1F93CF93DF93282F30E0F9011E
:1002C000E255FF4F8491F901E656FF4FD491F901B1
:1002D000EA57FF4FC491CC23A9F0162F81110E9439
:1002E0000801EC2FF0E0EE0FFF1FEE58FF4FA59135
:1002F000B4918FB7F894EC91111108C0D095DE231A
:10030000DC938FBFDF91CF911F910895DE2BF8CF43
:10031000CF93DF9390E0FC01E656FF4F24918A577C
:100320009F4FFC0184918823D1F090E0880F991FA2
:10033000FC01E859FF4FA591B491FC01EE58FF4F25
:10034000C591D49161110EC09FB7F8948C91E22FA2
:10035000E0958E238C932881E223E8839FBFDF9171
:10036000CF9108958FB7F894EC91E22BEC938FBF67
:10037000F6CF1F93CF93DF93182FEB0161E00E941C
:100380008801209739F460E0812FDF91CF911F9190
:100390000C945A01CF3FD10511F461E0F5CFE12F64
:1003A000F0E0E255FF4FE491E33031F140F4E13009
:1003B000B1F0E230E1F0C038D1057CF7E4CFE730AE
:1003C00029F1E83059F1E430B1F780918000806282
:1003D00080938000D0938B00C0938A0004C084B5C2
:1003E000806884BDC7BDDF91CF911F91089584B50A
:1003F000806284BDC8BDF7CF809180008068809303
:100400008000D0938900C0938800EDCF8091B00028
:1004100080688093B000C093B300E5CF8091B000B6
:1004200080628093B000C093B400DDCF3FB7F894F2
:1004300080912A0190912B01A0912C01B0912D0166
:1004400026B5A89B05C02F3F19F00196A11DB11D2F
:100450003FBFBA2FA92F982F8827BC01CD01620F6B
:10046000711D811D911D42E0660F771F881F991F26
:100470004A95D1F708958F929F92AF92BF92CF92F3
:10048000DF92EF92FF924B015C010E9416026B011A
:100490007C010E9416026C197D098E099F09683E35
:1004A000734081059105A8F321E0821A9108A10803
:1004B000B10888EEC80E83E0D81EE11CF11C81143F
:1004C0009104A104B10429F7FF90EF90DF90CF9041
:1004D000BF90AF909F908F900895AF92BF92CF92B0
:1004E000DF92EF92FF920F931F93CF93DF936C01F4
:1004F0007B018B01040F151FEB015E01AE18BF08D5
:10050000C017D10759F06991D601ED91FC91019086
:10051000F081E02DC6010995892B79F7C501DF919E
:10052000CF911F910F91FF90EF90DF90CF90BF90F0
:10053000AF900895FC01538D448D252F30E0842F1A
:1005400090E0821B930B541710F0CF9608950197FB
:100550000895FC01918D828D981761F0A28DAE0FE8
:10056000BF2FB11D5D968C91928D9F5F9F73928F6F
:1005700090E008958FEF9FEF0895FC01918D828D9B
:10058000981731F0828DE80FF11D858D90E0089568
:100590008FEF9FEF0895FC01918D228D892F90E0C0
:1005A000805C9F4F821B91098F73992708958EE27B
:1005B00091E00E94CB0221E0892B09F420E0822FF8
:1005C000089580E090E0892B29F00E94D7028111E4
:1005D0000C9400000895FC01A48DA80FB92FB11D43
:1005E000A35ABF4F2C91848D90E001968F73992769
:1005F000848FA689B7892C93A089B1898C91837047
:1006000080648C93938D848D981306C00288F3893F
:10061000E02D80818F7D80830895EF92FF920F936C
:100620001F93CF93DF93EC0181E0888F9B8D8C8D9E
:1006300098131AC0E889F989808185FF15C09FB792
:10064000F894EE89FF896083E889F9898081837055
:10065000806480839FBF81E090E0DF91CF911F9104
:100660000F91FF90EF900895F62E0B8D10E00F5F25
:100670001F4F0F731127E02E8C8D8E110CC00FB6FB
:1006800007FCFACFE889F989808185FFF5CFCE0193
:100690000E94EB02F1CFEB8DEC0FFD2FF11DE35A21
:1006A000FF4FF0829FB7F8940B8FEA89FB89808116
:1006B0008062CFCFCF93DF93EC01888D8823B9F090
:1006C000AA89BB89E889F9898C9185FD03C080815D
:1006D00086FD0DC00FB607FCF7CF8C9185FFF2CFDA
:1006E000808185FFEDCFCE010E94EB02E9CFDF9143
:1006F000CF910895FC0101900020E9F73197AF01F7
:10070000481B590BBC018EE291E00C946D021F92C4
:100710000F920FB60F9211242F933F938F939F93B5
:10072000AF93BF938091260190912701A09128015A
:10073000B09129013091250123E0230F2D3758F581
:100740000196A11DB11D2093250180932601909350
:100750002701A0932801B093290180912A0190914B
:100760002B01A0912C01B0912D010196A11DB11D6D
:1007700080932A0190932B01A0932C01B0932D011B
:10078000BF91AF919F918F913F912F910F900FBE8D
:100790000F901F90189526E8230F0296A11DB11DFA
:1007A000D2CF1F920F920FB60F9211242F933F9327
:1007B0004F935F936F937F938F939F93AF93BF9369
:1007C000EF93FF938EE291E00E94EB02FF91EF9195
:1007D000BF91AF919F918F917F916F915F914F9159
:1007E0003F912F910F900FBE0F901F9018951F9261
:1007F0000F920FB60F9211242F938F939F93EF9325
:10080000FF93E0913E01F0913F018081E09144012E
:10081000F091450182FD1BC09081809147018F5F5F
:100820008F7320914801821741F0E0914701F0E079
:10083000E25DFE4F958F80934701FF91EF919F916D
:100840008F912F910F900FBE0F901F901895808160
:10085000F4CF1F920F920FB60F9211242F933F9354
:100860004F935F936F937F938F939F93AF93BF93B8
:10087000CF93DF93EF93FF9380912001C091EF011D
:10088000D0E087FF24C010928500109284008091F0
:1008900020018F5F8093200180912001082E000CA1
:1008A000990B8C179D0724F4809120018C30C4F1A2
:1008B0008091840090918500049680349C4908F4CE
:1008C0007AC08091840090918500049676C08091D2
:1008D0002001082E000C990B8C179D07C4F6E0919F
:1008E00020018E2FEE0F990BFC01EE0FFF1FE80F7A
:1008F000F91FE553FE4F808186FFC9CFE0912001AB
:100900008E2FEE0F990BFC01EE0FFF1FE80FF91F62
:10091000E553FE4F808160E08F730E945A01B7CF8C
:100920002091840030918500E09120018E2FEE0F00
:10093000990BFC01EE0FFF1FE80FF91FE553FE4F67
:1009400081819281820F931F909389008093880008
:10095000E09120018E2FEE0F990BFC01EE0FFF1F8F
:10096000E80FF91FE553FE4F808186FF11C0E0912B
:1009700020018E2FEE0F990BFC01EE0FFF1FE80FE9
:10098000F91FE553FE4F808161E08F730E945A0189
:10099000FF91EF91DF91CF91BF91AF919F918F9197
:1009A0007F916F915F914F913F912F910F900FBE6B
:1009B0000F901F90189580E49CE990938900809394
:1009C00088008FEF80932001E3CFCF92DF92EF92E8
:1009D000FF920F931F93E82FF92F05C001501109C3
:1009E0002109310961F1908196239417B9F305C06B
:1009F000015011092109310911F1908196239413B5
:100A0000F7CFC12CD12CE12CF12C0AC08FEFC81AE2
:100A1000D80AE80AF80A0C151D052E053F0579F0DD
:100A200080818623841791F36C2D7D2D8E2D9F2D33
:100A30001F910F91FF90EF90DF90CF90089560E0AD
:100A400070E080E090E01F910F91FF90EF90DF90B9
:100A5000CF900895109231011092300188EE93E00A
:100A6000A0E0B0E08093320190933301A093340171
:100A7000B093350184E091E090932F0180932E0193
:100A800085EC90E090933B0180933A0184EC90E0F8
:100A900090933D0180933C0180EC90E090933F0166
:100AA00080933E0181EC90E090934101809340015E
:100AB00082EC90E0909343018093420186EC90E0B9
:100AC0009093450180934401109247011092480190
:100AD0001092490110924A018091EF018C3098F4F4
:100AE00091E0980F9093EF018093F00190E0FC016A
:100AF000EE0FFF1FE80FF91FE553FE4F88EB9BE059
:100B00009283818308958FEF8093F0010895CF93AE
:100B1000DF93CDB7DEB7A1970FB6F894DEBF0FBE57
:100B2000CDBF789484B5826084BD84B5816084BD76
:100B300085B5826085BD85B5816085BD80916E007B
:100B4000816080936E0010928100809181008260AC
:100B500080938100809181008160809381008091E9
:100B600080008160809380008091B10084608093D8
:100B7000B1008091B00081608093B00080917A00D4
:100B8000846080937A0080917A00826080937A00FA
:100B900080917A00816080937A0080917A008068E9
:100BA00080937A001092C1008091F0018C3008F09F
:100BB00051C061E088E00E9488018091F001282FF7
:100BC00030E0F901EE0FFF1FE20FF31FE553FE4F78
:100BD0009081907C986090831092F1011092F201C4
:100BE0002CE0622F0E949409829FB001112430E012
:100BF00020E0AB01420F531FFA01EE0FFF1FE40F7D
:100C0000F51FE553FE4F908196FD16C02F5F3F4FB5
:100C10002C30310571F781110FC01092800082E0F5
:100C2000809381001092850010928400B19A809187
:100C30006F00826080936F00E091F0018E2F90E052
:100C4000FC01EE0FFF1FE80FF91FE553FE4F8081F7
:100C5000806480838AE590E0909322018093210153
:100C6000E0902101F090220125EBE216F1048CF4D2
:100C7000C7010E948C006FE070E080E090E00E946D
:100C80003B028FEFE81AF80AF0922201E09221016C
:100C9000E7CF84EB90E09093220180932101E090D4
:100CA0002101F0902201F7FC11C0C7010E948C00C5
:100CB0006FE070E080E090E00E943B0291E0E91A72
:100CC000F108F0922201E0922101E9CF1092220175
:100CD00010922101E0902101F0902201EBE5EE1647
:100CE000F1048CF4C7010E948C006FE070E080E09A
:100CF00090E00E943B02FFEFEF1AFF0AF092220100
:100D0000E0922101E7CF61E08BE00E94880161E081
:100D10008CE00E94880161E085E00E94880161E02A
:100D200084E00E94880161E083E00E94880161E024
:100D300082E00E94880161E089E00E94880160E011
:100D40008AE00E94880160E081E10E94880160E001
:100D50008EE00E948801E0913E01F0913F0182E027
:100D60008083E0913A01F0913B011082E0913C01D7
:100D7000F0913D018FEC808310924601E091420199
:100D8000F091430186E08083E0914001F0914101C0
:100D9000808180618083E0914001F09141018081F8
:100DA00088608083E0914001F091410180818068FA
:100DB0008083E0914001F091410180818F7D8083AB
:100DC00034EAE32E30E0F32E40E9C42E40E0D42E86
:100DD00050E0A52E50E0B52E60E089E00E945A0157
:100DE00062E070E080E090E00E943B0261E089E018
:100DF0000E945A016AE070E080E090E00E943B02AD
:100E000060E089E00E945A01F7016491F601849143
:100E1000E82FF0E0EE0FFF1FE458FF4F859194910B
:100E200000E412E42FE030E0462F0E94E504611553
:100E300071058105910529F06F5F7F4F8F4F9F4F9F
:100E40009F700E949B0826E933E44BE05DE30E941B
:100E5000FF0820E030E040E05FE30E94FF080E94CE
:100E60006308709324016093230182E191E00E9462
:100E70007A034090230150902401052C000C660851
:100E8000770877FE53C06DE28EE291E00E940D0379
:100E900022273327A901241935094609570919A220
:100EA000CE0181963C019AE0292E312C412C512C07
:100EB000CA01B901A20191010E943208605DF301EB
:100EC00062933F01211531054105510589F76114F0
:100ED000710419F0C3010E947A038DE191E00E9430
:100EE0007A0381E10E9431013C018EE00E943101D0
:100EF000F1E06F167104A9F58130910509F05DC02C
:100F000080912301909124010A97459708F070C0C1
:100F100061E085E00E945A0160E084E00E945A018D
:100F200061E083E00E945A0160E02EC0A3019201BB
:100F300019A2CE0181963C018AE0282E312C412C49
:100F4000512CCA01B901A20191010E943208605DD1
:100F5000F30162933F01211531054105510589F7E0
:100F6000B6CF672809F044C08130910571F561E082
:100F700085E00E945A0160E084E00E945A0160E02E
:100F800083E00E945A0161E082E00E945A0160E819
:100F900070E08BE00E94B90160E870E08CE00E9494
:100FA000B901A114B10409F417CF0E94D702882314
:100FB00009F412CF0E9400000FCF892BC9F460E022
:100FC00085E00E945A0161E0A8CF892B89F460E096
:100FD00085E00E945A0160E084E00E945A0160E0CE
:100FE00083E00E945A0160E082E00E945A01D9CF5A
:100FF00080912301909124010297089790F6E7CF02
:10100000052E97FB1EF400940E94170857FD07D089
:101010000E94320807FC03D04EF40C941708509538
:101020004095309521953F4F4F4F5F4F08959095D4
:101030008095709561957F4F8F4F9F4F08950E94C7
:101040005408A59F900DB49F900DA49F800D911DF5
:1010500011240895B7FF0C941F080E941F08821BDB
:10106000930B0895A1E21A2EAA1BBB1BFD010DC014
:10107000AA1FBB1FEE1FFF1FA217B307E407F50748
:1010800020F0A21BB30BE40BF50B661F771F881F24
:10109000991F1A9469F760957095809590959B01BA
:1010A000AC01BD01CF010895A29FB001B39FC00163
:1010B000A39F700D811D1124911DB29F700D811D84
:1010C0001124911D08950E946A086894B1110C942E
:1010D000F90808950E94DE0888F09F5798F0B92F0C
:1010E0009927B751B0F0E1F0660F771F881F991F5D
:1010F0001AF0BA95C9F714C0B13091F00E94F808FF
:10110000B1E008950C94F808672F782F8827B85F0E
:1011100039F0B93FCCF3869577956795B395D9F7B4
:101120003EF490958095709561957F4F8F4F9F4FBE
:101130000895E89409C097FB3EF4909580957095CA
:1011400061957F4F8F4F9F4F9923A9F0F92F96E913
:10115000BB279395F695879577956795B795F11188
:10116000F8CFFAF4BB0F11F460FF1BC06F5F7F4F25
:101170008F4F9F4F16C0882311F096E911C0772337
:1011800021F09EE8872F762F05C0662371F096E840
:10119000862F70E060E02AF09A95660F771F881F0F
:1011A000DAF7880F9695879597F9089557FD905827
:1011B000440F551F59F05F3F71F04795880F97FB1B
:1011C000991F61F09F3F79F08795089512161306D5
:1011D0001406551FF2CF4695F1DF08C01616170604
:1011E0001806991FF1CF8695710561050894089539
:1011F000E894BB2766277727CB0197F908950E94CB
:1012000012090C9483090E94750938F00E947C0928
:1012100020F0952311F00C946C090C9472091124A0
:101220000C94F9080E94D60870F3959FC1F3950FAE
:1012300050E0551F629FF001729FBB27F00DB11D5A
:10124000639FAA27F00DB11DAA1F649F6627B00DEA
:10125000A11D661F829F2227B00DA11D621F739FD3
:10126000B00DA11D621F839FA00D611D221F749FE1
:101270003327A00D611D231F849F600D211D822F28
:10128000762F6A2F11249F5750409AF0F1F088234F
:101290004AF0EE0FFF1FBB1F661F771F881F91507C
:1012A0005040A9F79E3F510580F00C946C090C94B6
:1012B000F9085F3FE4F3983ED4F3869577956795F8
:1012C000B795F795E7959F5FC1F7FE2B880F911DA6
:1012D0009695879597F9089597F99F6780E870E04C
:1012E00060E008959FEF80EC089500240A9416169C
:1012F000170618060906089500240A941216130604
:10130000140605060895092E0394000C11F4882391
:1013100052F0BB0F40F4BF2B11F460FF04C06F5FAD
:101320007F4F8F4F9F4F0895991B79E004C0991FFD
:10133000961708F0961B881F7A95C9F7809508952F
:10134000EE0FFF1F0590F491E02D0994F894FFCF64
:10135000000000000D036D029A025A03CB02A9029D
:10136000BD0244697374616E63653A20000D0A0022
:107E0000112484B714BE81FFF0D085E080938100F7
:107E100082E08093C00088E18093C10086E0809377
:107E2000C20080E18093C4008EE0C9D0259A86E02C
:107E300020E33CEF91E0309385002093840096BBD3
:107E4000B09BFECF1D9AA8958150A9F7CC24DD24C4
:107E500088248394B5E0AB2EA1E19A2EF3E0BF2EE7
:107E6000A2D0813461F49FD0082FAFD0023811F036
:107E7000013811F484E001C083E08DD089C08234E0
:107E800011F484E103C0853419F485E0A6D080C0E4
:107E9000853579F488D0E82EFF2485D0082F10E0AE
:107EA000102F00270E291F29000F111F8ED06801E7
:107EB0006FC0863521F484E090D080E0DECF843638
:107EC00009F040C070D06FD0082F6DD080E0C81688
:107ED00080E7D80618F4F601B7BEE895C0E0D1E017
:107EE00062D089930C17E1F7F0E0CF16F0E7DF06D8
:107EF00018F0F601B7BEE89568D007B600FCFDCFD4
:107F0000A601A0E0B1E02C9130E011968C91119780
:107F100090E0982F8827822B932B1296FA010C0160
:107F200087BEE89511244E5F5F4FF1E0A038BF0790
:107F300051F7F601A7BEE89507B600FCFDCF97BE46
:107F4000E89526C08437B1F42ED02DD0F82E2BD052
:107F50003CD0F601EF2C8F010F5F1F4F84911BD097
:107F6000EA94F801C1F70894C11CD11CFA94CF0C13
:107F7000D11C0EC0853739F428D08EE10CD085E9AC
:107F80000AD08FE07ACF813511F488E018D01DD067
:107F900080E101D065CF982F8091C00085FFFCCF94
:107FA0009093C60008958091C00087FFFCCF809118
:107FB000C00084FD01C0A8958091C6000895E0E648
:107FC000F0E098E1908380830895EDDF803219F02E
:107FD00088E0F5DFFFCF84E1DECF1F93182FE3DFCA
:107FE0001150E9F7F2DF1F91089580E0E8DFEE27F6
:047FF000FF270994CA
:027FFE00040479
:00000001FF
